:100000000C946E0C0C94980C0C94980C0C94980C0A
:100010000C94980C0C94980C0C94980C0C94980CD0
:100020000C94980C0C94980C0C946CA20C94E9A26F
:100030000C94980C0C94980C0C94980C0C94980CB0
:100040000C94980C0C9403820C94980C0C94980CBF
:100050000C94980C0C94980C0C941E960C94CBA1B8
:100060000C94980C0C94980C0C94980C0C94980C80
:100070000C94980C0C94980C0C94980C0C94980C70
:100080000C94980C0C94980C0C94980C0C94980C60
:100090000C948C9D0C94980C88969496B096BC9673
:1000A000D696E296FC96089728974FA07BA09DA035
:1000B0009DA09DA09DA09DA09DA09DA09DA09DA058
:1000C0009DA09DA09DA093A08BA083A09DA09DA07E
:1000D0009DA09DA09DA09DA09DA075A05BA063A0DC
:1000E0006DA0084AD73B3BCE016E84BCBFFDC12F3B
:1000F0003D6C74319ABD56833DDA3D00C77F11BE19
:10010000D9E4BB4C3E916BAAAABE000000803F051B
:10011000A84CCDB2D44EB93836A9020C50B991864C
:1001200088083CA6AAAA2ABE000000803F004E41D3
:100130004E494E495459494E46CDCCCC3D0AD72361
:100140003C17B7D13877CC2B329595E6241FB14FA9
:100150000A000020410000C84200401C4620BCBEEE
:100160004CCA1B0E5AAEC59D7448617264636F64BD
:1001700065642044656661756C74205365747469A8
:100180006E6773204C6F616465640053746F7265B1
:10019000642073657474696E677320726574726924
:1001A0006576656400205A0020590020204D3231C8
:1001B000322058004265642070726F6265206F665D
:1001C0006673657420286D6D293A00205A00205905
:1001D0000020204D3231312058004D617820706F61
:1001E000736974696F6E20286D6D293A00205A007A
:1001F00020590020204D3231302058004D696E20AA
:10020000706F736974696F6E20286D6D293A0020D4
:1002100044002049002020204D3330312050005030
:1002200049442073657474696E67733A00205A00FC
:1002300020590020204D323036205800486F6D651F
:10024000206F666673657420286D6D293A0020451D
:1002500000205A0020580020420020540020204D49
:10026000323035205300416476616E6365642076D8
:1002700061726961626C65733A20533D4D696E200D
:10028000666565647261746520286D6D2F73292C15
:1002900020543D4D696E2074726176656C206665F0
:1002A00065647261746520286D6D2F73292C20425E
:1002B0003D6D696E696D756D207365676D656E74F2
:1002C0002074696D6520286D73292C20583D6D615F
:1002D00078696D756D205859206A65726B20286D9C
:1002E0006D2F73292C20205A3D6D6178696D756DD5
:1002F000205A206A65726B20286D6D2F73292C207F
:1003000020453D6D6178696D756D2045206A657287
:100310006B20286D6D2F73290020540020204D3252
:100320003034205300416363656C65726174696F9A
:100330006E3A20533D616363656C65726174696FE9
:100340006E2C20543D726574726163742061636326
:10035000656C65726174696F6E00204500205A00FB
:1003600020590020204D3230312058004D617869ED
:100370006D756D20416363656C65726174696F6E44
:1003800020286D6D2F7332293A00204500205A0035
:1003900020590020204D3230332058004D617869BB
:1003A0006D756D2066656564726174657320286D76
:1003B0006D2F73293A00204500205A002059002053
:1003C000204D393220580053746570732070657267
:1003D00020756E69743A0053657474696E67732092
:1003E00053746F726564006563686F3A0050726998
:1003F0006E7465722073746F7070656420647565C7
:1004000020746F206572726F72732E204669782097
:10041000746865206572726F7220616E64207573F6
:1004200065204D39393920746F207265737461729B
:10043000742E202854656D70657261747572652024
:1004400069732072657365742E2053657420697416
:100450002061667465722072657374617274696E6E
:100460006729005072696E7465722068616C7465EA
:10047000642E206B696C6C28292063616C6C656448
:1004800021006F6B00526573656E643A2000220094
:10049000556E6B6E6F776E20636F6D6D616E643A33
:1004A000202200486F74656E64206F666673657401
:1004B000733A007A5F6D696E3A2000795F6D6178FA
:1004C0003A2000785F6D696E3A20005A3A00593A36
:1004D0000020436F756E7420583A2000453A005A48
:1004E0003A00593A00583A004649524D5741524550
:1004F0005F4E414D453A5042204D61726C696E200D
:100500005265762046207635204649524D57415255
:10051000455F55524C3A68747470733A2F2F67696F
:10052000746875622E636F6D2F5072696E7472629B
:100530006F742F4D61726C696E2050524F544F434F
:100540004F4C5F56455253494F4E3A312E30204D55
:10055000414348494E455F545950453A5072696E7F
:100560007472626F742045585452554445525F432B
:100570004F554E543A3320555549443A3030303077
:10058000303030302D303030302D303030302D3074
:100590003030302D3030303030303030303030305E
:1005A0000A0020423A0020453A00543A0020573AC7
:1005B0000020453A00543A002042403A0020403A98
:1005C00000202F003A00205400202F0020423A0043
:1005D000202F006F6B20543A002569206D696E2C26
:1005E0002025692073656300456E642066696C652B
:1005F000206C69737400426567696E2066696C657A
:10060000206C697374000A00205A3A200020593A7D
:10061000200042656420506F736974696F6E2058C2
:100620003A200020643A200020623A200045716E92
:1006300020636F656666696369656E74733A2061ED
:100640003A20000A00207A3A200020793A2000421D
:10065000656420783A20005A50726F6265204F75A9
:1006600074736964652042656400486F6D65205845
:100670002F59206265666F7265205A0025692068CF
:100680006F757273202569206D696E7574657300CE
:10069000446F6E65207072696E74696E672066695A
:1006A0006C65005072696E7465722073746F70703F
:1006B00065642064756520746F206572726F727353
:1006C0002E2046697820746865206572726F7220EA
:1006D000616E6420757365204D39393920746F203F
:1006E000726573746172742E202854656D70657222
:1006F00061747572652069732072657365742E204C
:100700005365742069742061667465722072657324
:1007100074617274696E6729006F6B004E6F204CB4
:10072000696E65204E756D62657220776974682008
:10073000636865636B73756D2C204C617374204C1A
:10074000696E653A20004E6F20436865636B737570
:100750006D2077697468206C696E65206E756D62B6
:1007600065722C204C617374204C696E653A2000D0
:10077000636865636B73756D206D69736D61746318
:10078000682C204C617374204C696E653A20004CD3
:10079000696E65204E756D626572206973206E6F9B
:1007A00074204C617374204C696E65204E756D62C7
:1007B00065722B312C204C617374204C696E653A44
:1007C00020004D31313000446F6E652073617669D1
:1007D0006E672066696C652E006F6B004D323900C4
:1007E0002020506C616E6E6572427566666572425D
:1007F000797465733A20002046726565204D656DF9
:100800006F72793A20004D617920323920323031CF
:100810003800436F6D70696C65643A2000284D693B
:10082000636861656C2057656973732C2049464C79
:10083000205072696E7472626F74206669726D778F
:100840006172652900207C20417574686F723A20BE
:10085000004D617920323920323031382030363A3B
:1008600033373A303400204C617374205570646122
:100870007465643A2000312E302E30004D61726C68
:10088000696E200020536F6674776172652052652F
:1008900073657400205761746368646F67205265E4
:1008A000736574002042726F776E206F75742052EA
:1008B00065736574002045787465726E616C2052B2
:1008C0006573657400506F7765725570007374615D
:1008D0007274002200656E717565696E6720220072
:1008E0002200656E717565696E67202200FF01FF49
:1008F0000000A0400000A0400000803F6563686FDA
:100900003A004572726F723A007C3C3E5E2B3D3F6E
:100910002F5B5D3B2C2A225C004D38342058205937
:10092000205A2045004D3234004D323320257300CB
:100930006175746F25692E67006572726F7220771A
:10094000726974696E6720746F2066696C65004E09
:100950006F74205344207072696E74696E67002F43
:10096000005344207072696E74696E6720627974F6
:100970006520002E0044656C6574696F6E206661A9
:10098000696C65642C2046696C653A200046696C88
:10099000652064656C657465643A002E006F70654F
:1009A0006E206661696C65642C2046696C653A202E
:1009B0000057726974696E6720746F2066696C6590
:1009C0003A20002E006F70656E206661696C656468
:1009D0002C2046696C653A20002E006F70656E20F1
:1009E0006661696C65642C2046696C653A20004636
:1009F000696C652073656C65637465640020536978
:100A00007A653A200046696C65206F70656E656492
:100A10003A20002E006F70656E206661696C656417
:100A20002C2046696C653A20004E6F77206672650F
:100A300073682066696C653A20004E6F7720646F9A
:100A4000696E672066696C653A20002220706F73BA
:100A5000002220706172656E743A22005355425232
:100A60004F5554494E452043414C4C2074617267A8
:100A700065743A2200747279696E6720746F20631E
:100A8000616C6C207375622D67636F6465206669A5
:100A90006C6573207769746820746F6F206D616E68
:100AA00079206C6576656C732E204D4158206C65FD
:100AB00076656C2069733A00534420636172642048
:100AC0006F6B006F70656E526F6F74206661696C3A
:100AD000656400766F6C756D652E696E697420664D
:100AE00061696C656400534420696E6974206661B5
:100AF000696C006563686F3A004572726F723A0004
:100B000020746F6F206C6F6E6720657874727573D8
:100B1000696F6E2070726576656E7465640020631F
:100B20006F6C6420657874727573696F6E20707273
:100B30006576656E746564006563686F3A002800C9
:100B40002920453A00280029205A3A002800292067
:100B5000593A00280020583A005374657070657245
:100B60002063757272656E742076616C7565732092
:100B70005B2528726177295D3A00205A3A00205996
:100B80003A0020583A00656E6473746F7073206881
:100B900069743A200024F4D43050C38E20C2A2409D
:100BA00017828B7011127A910D816CD90AA861E1BC
:100BB00008C7586607615143061E4B5D05C145A72E
:100BC000041A411104093D9803713931034036DBA1
:100BD0000265339102D4305402802E1D02632CEE44
:100BE00001752AC501B028A001102781018F256455
:100BF000012B244B01E0223401AC211F018D200D7B
:100C000001801FFC00841EED00971DDF00B81CD280
:100C100000E61BC600201BBC00641AB200B219A873
:100C2000000A19A0006A189900D117910040178B8B
:100C300000B516840031167E00B31579003A15739D
:100C400000C7146F0058146A00EE1366008813631F
:100C50000025135E00C7125B006C1257001512547A
:100C600000C111510070114F0021114B00D61049E5
:100C7000008D1047004610440002104200C00F4093
:100C800000800F3E00420F3C00060F3B00CB0E38A9
:100C900000930E37005C0E3500270E3400F30D3242
:100CA00000C10D3100900D3000600D2E00320D2D71
:100CB00000050D2C00D90C2B00AE0C2900850C2949
:100CC000005C0C2700350C27000E0C2600E80B24D6
:100CD00000C40B2400A00B23007D0B23005A0B2122
:100CE00000390B2100180B2000F80A1F00D90A1E3A
:100CF00000BB0A1E009D0A1D00800A1D00630A1C1D
:100D000000470A1B002C0A1B00110A1A00F7091AD7
:100D100000DD091900C4091900AB0919009209176F
:100D2000007B091800630917004C091600360916E4
:100D300000200916000A091500F5081500E008143E
:100D400000CC081400B8081400A40814009008137C
:100D5000007D0812006B08130058081200460812A4
:100D600000340811002308110012081100010811B5
:100D700000F0071000E0071000D0071000C00710B7
:100D800000B0070F00A107100091070E0083070FA6
:100D90000074070F0065070E0057070E0049070E85
:100DA000003B070D002E070E0020070D0013070D56
:100DB0000006070D00F9060C00ED060D00E0060C1C
:100DC00000D4060C00C8060C00BC060C00B0060CD3
:100DD00000A4060B0099060C008D060B0082060B82
:100DE0000077060B006C060B0061060A0057060B25
:100DF000004C060A0042060A0038060A002E060ABF
:100E00000024060A001A060A001006090007060A4E
:100E100000FD050900F4050900EB050900E20509DC
:100E200000D9050900D0050900C7050900BE05095C
:100E300000B5050800AD050800A50509009C0508DA
:100E400000940508008C050800840508007C05084E
:100E500000740508006C050700650508005D0507BE
:100E600000560508004E0507004705070040050825
:100E70000038050700310507002A0507002305078C
:100E8000001C050600160507000F050700080506EB
:100E90000002050700FB040600F5040700EE040647
:100EA00000E8040600E2040700DB040600D504069F
:100EB00000CF040600C9040600C3040600BD0406F2
:100EC00000B7040600B1040500AC040600A6040641
:100ED00000A00405009B040600950405009004068C
:100EE000008A04050085040500800406007A0405D4
:100EF0000075040500700405006B04050066040518
:100F000000610405005C0405005704050052040557
:100F1000004D04050048040500430405003E040498
:100F2000003A04050035040500300404002C0405D3
:100F30000027040400230405001E0404001A04040E
:100F40000016040500110404000D04040009040542
:100F5000000404040000040400FC030400F803047B
:100F600000F4030400F0030400EC030400E80304AD
:100F700000E4030400E0030400DC030400D80304DD
:100F800000D4030400D0030400CC030400C803030E
:100F900000C503030024F404D9201BC40C5C0E9884
:100FA00004C4095F0265077101F405F900FB04B38D
:100FB0000048048700C10369005803550003034536
:100FC00000BE023A008402310053022A00290225A1
:100FD0000004022000E4011C00C8011900AF011741
:100FE00000980114008401130071011000610110C8
:100FF0000051010E0043010D0036010B002B010BC7
:101000000020010B00150109000C01090003010873
:1010100000FB000800F3000800EB000700E40006F6
:1010200000DE000600D8000600D2000600CC000555
:1010300000C7000500C2000500BD000400B900049F
:1010400000B5000400B1000400AD000400A90004D4
:1010500000A5000300A20003009F0004009B000302
:101060000098000300950002009300030090000325
:10107000008D0002008B0003008800020086000241
:101080000084000300810002007F0002007D000256
:10109000007B000200790002007700010076000268
:1010A000007400020072000100710002006F000273
:1010B000006D0001006C0002006A0001006900027E
:1010C0000067000100660001006500010064000285
:1010D000006200010061000100600001005F000289
:1010E000005D0001005C0001005B0001005A00018E
:1010F000005900010058000100570001005600018E
:10110000005500010054000100530000005300018D
:10111000005200010051000100500001004F000189
:10112000004E0000004E0001004D0001004C000187
:10113000004B0000004B0001004A00010049000183
:101140000048000000480001004700010046000080
:101150000046000100450000004500010044000178
:101160000043000000430001004200000042000173
:10117000004100000041000100400001003F00006C
:10118000003F0001003E0000003E0001003D000065
:10119000003D0001003C0000003C0000003C00015C
:1011A000003B0000003B0001003A0000003A000153
:1011B000003900000039000100380000003800004C
:1011C0000038000100370000003700010036000041
:1011D0000036000000360001003500000035000038
:1011E000003500010034000000340000003400012C
:1011F0000033000000330000003300010032000023
:101200000032000000320001003100000031000017
:10121000003100010030000000300000003000010B
:10122000002F0000002F0000002F0000002F000101
:10123000002E0000002E0000002E0001002D0000F6
:10124000002D0000002D0000002D0001002C0000EA
:10125000002C0000002C0000002C0001002B0000DE
:10126000002B0000002B0000002B0001002A0000D2
:10127000002A0000002A0000002A000100290000C6
:1012800000290000002900000029000000290001B9
:1012900000280000002800000028000000280000AE
:1012A00000280001002700000027000000270000A0
:1012B0000027000000270001002600000026000093
:1012C0000026000000260000002600010025000086
:1012D000002500000025000000250000002500007A
:1012E000002500010024000000240000002400006C
:1012F000002400000024000100230000002300005F
:101300000023000000230000002300000023000051
:101310000023000100220000002200000022000043
:101320000022000000220000002200010021000035
:101330000021000000210000002100000021000029
:10134000002100000021000100200000002000001A
:10135000002000000020000000200000002000000D
:101360000020000000200001001F0000001F0000FE
:10137000001F0000001F0000001F0000001F0000F1
:10138000001F0001001E0000001E0000001E0000E3
:10139000001E0000006563686F3A0054656D70655B
:1013A0007261747572652068656174656420626538
:1013B00064207377697463686564206F66662E20A5
:1013C0004D415854454D5020747269676765726588
:1013D00064202121003A204578747275646572207A
:1013E0007377697463686564206F66662E204D4963
:1013F0004E54454D5020747269676765726564206C
:1014000021003A204578747275646572207377699B
:101410007463686564206F66662E204D415854459C
:101420004D502074726967676572656420210020E1
:101430002D20496E76616C696420657874727564DC
:101440006572206E756D62657220210050494420DE
:101450004175746F74756E652066696E6973686531
:1014600064212050757420746865204B702C204BCB
:101470006920616E64204B6420636F6E7374616ECB
:10148000747320696E746F20436F6E66696775723E
:101490006174696F6E2E6800504944204175746F05
:1014A00074756E65206661696C6564212074696D70
:1014B000656F75740020403A006F6B20543A006FDE
:1014C0006B20423A00504944204175746F74756E28
:1014D00065206661696C6564212054656D70657274
:1014E000617475726520746F6F2068696768002089
:1014F0004B643A2000204B693A2000204B703A2080
:101500000020436C617369632050494420002054DB
:10151000753A2000204B753A2000206D61783A2002
:1015200000206D696E3A200020643A200020626934
:1015300061733A20004572726F723A001000AD0379
:1015400030016A0150022B0170030A019004F5007A
:10155000B005E500D006D800F007CE001009C500A0
:10156000300ABE00500BB700700CB100900DAB00FC
:10157000B00EA600D00FA200F0109D00101299002E
:10158000301395005014920070158E0090168B0049
:10159000B0178700D0188400F0198100101B7E005E
:1015A000301C7B00501D7900701E7600901F730068
:1015B000B0207000D0216E00F0226B001024690072
:1015C00030256600502663007027610090285E0079
:1015D000B0295C00D02A5900F02B5600102D540081
:1015E000302E5100502F4E0070304B00903148008B
:1015F000B0324500D0334200F0343E0010363B009C
:10160000303737005038330070392E00903A2900B7
:10161000B03B2300D03C1B00F03D1100103F010007
:10162000F03F00001000C90210012C01400122010E
:1016300070011801B0010E01F00104015002FA001E
:10164000B002F0003003E600D003DC009004D200CA
:101650007005C800A006BE000008B400B009AA00CA
:10166000D00BA000600E960060118C000015820067
:1016700020197800C01D6E00A0226400B0275A0017
:10168000902C500000314600E0343C00103832000D
:10169000903A2800603C1E00A03D1400803E0A00E5
:1016A000203F000070012C0190012701B0012201B0
:1016B000C0011D01F00118011002130130020E01DA
:1016C0006002090190020401C002FF000003FA0059
:1016D0004003F5008003F000D003EB002004E60097
:1016E0007004E100E004DC004005D700C005D20032
:1016F0004006CD00D006C8008007C3003008BE00F9
:10170000F008B900C009B400B00AAF00B00BAA00DD
:10171000D00CA500000EA000500F9B00C01096003A
:101720005012910000148C00C0158700B017820081
:10173000B0197D00D01B7800001E730040206E00A1
:1017400090226900F024640040275F0090295A002D
:10175000E02B5500102E500020304B001032460078
:10176000E033410090353C001037370070383200CC
:10177000A0392D00B03A2800A03B2300603C1E0099
:10178000103D1900903D1400103E0F00703E0A00FD
:10179000C03E0500003F00000A00207A3A200020E9
:1017A000793A200020783A200001290229042908EA
:1017B000291029202940298029012C022C012602E8
:1017C00026042608261026202640268026402C8027
:1017D0002C012302230423082310232023402380E9
:1017E00023012002200420082010202020402080F7
:1017F00020102C202C012F022F042F082F102F2017
:101800002F402F802F00010000B6181200020000A8
:10181000731843000300006F1804010309045518EE
:1018200018020309043D1816030309042F180C0CB1
:101830000330003000300030003300000016035544
:1018400000530042002000530065007200690061EF
:10185000006C00000018035400650065006E007302
:101860000079006400750069006E006F00000004DC
:1018700003090409024300020100C0320904000008
:1018800001020201000524001001052401000104E9
:10189000240206052406000107058203080040090A
:1018A000040100020A0000000705030240000007CF
:1018B0000584024000001201000202000020C01650
:1018C00083040001010203010001C102018036010D
:1018D00081362720E18AAA9C82A72B2011241FBED3
:1018E000CFEFD0E2DEBFCDBF13E0A0E0B1E0E8E78C
:1018F000F5E601E00BBF02C007900D92AC34B107D2
:10190000D9F721E1ACE4B3E001C01D92AA36B207D9
:10191000E1F71CE0CDE6DCE004C02197FE010E9467
:101920007FACC936D107C9F70E949FA50C94B0B20D
:101930000C940000FB0101900020E9F73197AF0102
:10194000461B570BDC01ED91FC910280F381E02DE9
:101950000994CF93DF931F92CDB7DEB76983DC0183
:10196000ED91FC910280F381E02D41E050E0BE0159
:101970006F5F7F4F09950F90DF91CF910895EF92A0
:10198000FF921F93CF93DF937C01C62FD72F142F85
:10199000160F6991F701808191810E94A2B2F7012F
:1019A000808191810196918380831C13F2CFDF9116
:1019B000CF911F91FF90EF900895EF92FF921F93A8
:1019C000CF93DF937C01C62FD72F142F160FF7016B
:1019D000808191810E949AB28993F70180819181DF
:1019E0000196918380831C13F2CFDF91CF911F91D9
:1019F000FF90EF9008950F931F93CF93DF93CDB790
:101A0000DEB768970FB6F894DEBF0FBECDBF80E398
:101A100090E3A0E3B0E08D839E83AF83B88704E6B4
:101A200010E0188F0F8B44E0BE016B5F7F4FCE013B
:101A30004796A5DF40E16EE37FE0CE0147969FDF4A
:101A400040E16EE47FE0CE01479699DF40E16EE22F
:101A50007FE0CE01479693DF44E066E27FE0CE016F
:101A600047968DDF44E062E27FE0CE01479687DF54
:101A700044E06AE27FE0CE01479681DF44E062E124
:101A80007FE0CE0147967BDF44E06EE57FE0CE014C
:101A9000479675DF44E06EE17FE0CE0147966FDF49
:101AA00044E06AE17FE0CE01479669DF44E066E109
:101AB0007FE0CE01479663DF4CE067E575E0CE013D
:101AC00047965DDF88EC90E09E8B8D8B8DE290E0F9
:101AD0009C8B8B8B8FEF90E09A8B898B20EF30E083
:101AE000388B2F871E870D879C878B8742E0BE012E
:101AF0006B5E7F4FCE01479642DF42E0BE016D5ED6
:101B00007F4FCE0147963BDF42E0BE016F5E7F4FC5
:101B1000CE01479634DF42E0BE01615F7F4FCE01C8
:101B200047962DDF42E0BE01635F7F4FCE014796AF
:101B300026DF42E0BE01655F7F4FCE0147961FDF83
:101B400044E060E071E0CE01479619DF44E064E0D4
:101B500071E0CE01479613DF44E068E071E0CE010A
:101B600047960DDF44E065E971E0CE01479607DF57
:101B700044E061E971E0CE01479601DF44E06DE8A1
:101B800071E0CE014796FBDE80E290E09A8789877C
:101B900042E0BE01675F7F4FCE014796F0DE44E032
:101BA0006DE473E0CE014796EADE44E06CE071E05C
:101BB000CE014796E4DE44E061E573E0CE0147964E
:101BC000DEDE44E060E171E0CE014796D8DE44E01D
:101BD00065E573E0CE014796D2DE44E064E171E052
:101BE000CE014796CCDE86E591E3A1E3B0E08983A0
:101BF0009A83AB83BC83188F0F8B44E0BE016F5F69
:101C00007F4FCE014796BBDEE7EEF3E064918F0194
:101C1000662341F08CE591E19CDE0F5F1F4FF801D8
:101C20006491F6CFE7EDF3E064918F01662341F014
:101C30008CE591E18EDE0F5F1F4FF8016491F6CFC6
:101C40006AE08CE591E185DE68960FB6F894DEBF18
:101C50000FBECDBFDF91CF911F910F9108950F93CC
:101C60001F93CF93DF93C7EED3E0FE0164918E0103
:101C7000662341F08CE591E16CDE0F5F1F4FF801A8
:101C80006491F6CFE7ECF3E064918F01662341F0B5
:101C90008CE591E15EDE0F5F1F4FF8016491F6CF96
:101CA0006AE08CE591E155DEFE01649107EE13E0F8
:101CB000662341F08CE591E14CDE0F5F1F4FF80188
:101CC0006491F6CF40913E0F50913F0F6091400FCD
:101CD0007091410F8FEB93E00E94A9184091420F41
:101CE0005091430F6091440F7091450F8CEB93E03E
:101CF0000E94A9184091460F5091470F6091480FDC
:101D00007091490F89EB93E00E94A91840914A0F06
:101D100050914B0F60914C0F70914D0F86EB93E0FB
:101D20000E94A9186AED72E08CE591E103DE6AE099
:101D30008CE591E10EDEFE01649107EE13E066236F
:101D400041F08CE591E105DE0F5F1F4FF8016491D2
:101D5000F6CFECE9F3E064918F01662341F08CE566
:101D600091E1F7DD0F5F1F4FF8016491F6CF6AE054
:101D70008CE591E1EEDDFE01649107EE13E0662350
:101D800041F08CE591E1E5DD0F5F1F4FF8016491B3
:101D9000F6CF40914E0F50914F0F6091500F7091C0
:101DA000510F83E993E00E94A9184091520F50917E
:101DB000530F6091540F7091550F80E993E00E948A
:101DC000A9184091560F5091570F6091580F70917C
:101DD000590F8DE893E00E94A91840915A0F509135
:101DE0005B0F60915C0F70915D0F8AE893E00E9439
:101DF000A9186AED72E08CE591E19CDD6AE08CE562
:101E000091E1A7DDFE01649107EE13E0662341F046
:101E10008CE591E19EDD0F5F1F4FF8016491F6CFD5
:101E2000ECE6F3E064918F01662341F08CE591E1EB
:101E300090DD0F5F1F4FF8016491F6CF6AE08CE5EB
:101E400091E187DDFE01649107EE13E0662341F026
:101E50008CE591E17EDD0F5F1F4FF8016491F6CFB5
:101E600040912E0F50912F0F6091300F7091310FD4
:101E700083E693E00E94E9184091320F5091330FAE
:101E80006091340F7091350F80E693E00E94E9185D
:101E90004091360F5091370F6091380F7091390F84
:101EA0008DE593E00E94E91840913A0F50913B0F65
:101EB00060913C0F70913D0F8AE593E00E94E91814
:101EC0006AED72E08CE591E135DD6AE08CE591E147
:101ED00040DDFE01649107EE13E0662341F08CE5DE
:101EE00091E137DD0F5F1F4FF8016491F6CFE5E216
:101EF000F3E064918F01662341F08CE591E129DDE7
:101F00000F5F1F4FF8016491F6CF6AE08CE591E115
:101F100020DDFE01649107EE13E0662341F08CE5BD
:101F200091E117DD0F5F1F4FF8016491F6CF4091EB
:101F3000260F5091270F6091280F7091290F8CE187
:101F400093E00E94A9184091220F5091230F6091B5
:101F5000240F7091250F89E193E00E94A9186AED82
:101F600072E08CE591E1E6DC6AE08CE591E1F1DC80
:101F7000FE01649107EE13E0662341F08CE591E1E8
:101F8000E8DC0F5F1F4FF8016491F6CFE6E6F2E060
:101F900064918F01662341F08CE591E1DADC0F5FFB
:101FA0001F4FF8016491F6CF6AE08CE591E1D1DC36
:101FB000FE01649107EE13E0662341F08CE591E1A8
:101FC000C8DC0F5F1F4FF8016491F6CF40912A0FD4
:101FD00050912B0F60912C0F70912D0F8DE592E099
:101FE0000E94A9184091120F5091130F6091140F85
:101FF0007091150F8AE592E00E94A91840915E0F3A
:1020000050915F0F6091600F7091610F87E592E0D2
:102010000E94E91840911E0F50911F0F6091200FF0
:102020007091210F84E592E00E94A91840911A0F47
:1020300050911B0F60911C0F70911D0F81E592E074
:102040000E94A9184091160F5091170F6091180F18
:102050007091190F8EE492E00E94A9186AED72E067
:102060008CE591E167DC6AE08CE591E172DCFE01D0
:10207000649107EE13E0662341F08CE591E169DCA1
:102080000F5F1F4FF8016491F6CFECE3F2E064912B
:102090008F01662341F08CE591E15BDC0F5F1F4F00
:1020A000F8016491F6CF6AE08CE591E152DCFE0123
:1020B000649107EE13E0662341F08CE591E149DC81
:1020C0000F5F1F4FF8016491F6CF40915705509173
:1020D00058056091590570915A0583E392E00E947A
:1020E000A91840915B0550915C0560915D05709168
:1020F0005E0580E392E00E94A91840915F0550912F
:10210000600560916105709162058DE292E00E9428
:10211000A9186AED72E08CE591E10CDC6AE08CE5CF
:1021200091E117DCFE01649107EE13E0662341F0B4
:102130008CE591E10EDC0F5F1F4FF8016491F6CF43
:10214000EFE1F2E064918F01662341F08CE591E1CB
:1021500000DC0F5F1F4FF8016491F6CF6AE08CE559
:1021600091E1F7DBFE01649107EE13E0662341F095
:102170008CE591E1EEDB0F5F1F4FF8016491F6CF24
:10218000409195015091960160919701709198014D
:1021900085E192E0DED7609191017091920180918A
:1021A0009301909194010E94F097AB01BC0182E1F0
:1021B00092E0CFD760918D0170918E0180918F0157
:1021C000909190010E94FE97AB01BC018FE092E0DC
:1021D000C0D76AED72E08CE591E1ACDB6AE08CE59A
:1021E00091E1B7DBFE01649107EE13E0662341F055
:1021F0008CE591E1AEDB0F5F1F4FF8016491F6CFE4
:10220000ECEFF1E064918F01662341F08CE591E100
:10221000A0DB0F5F1F4FF8016491F6CF6AE08CE5F9
:1022200091E197DBFE01649107EE13E0662341F034
:102230008CE591E18EDB0F5F1F4FF8016491F6CFC3
:1022400040914D0350914E0360914F0370915003A4
:1022500083EF91E07ED740915103509152036091FA
:1022600053037091540380EF91E073D7409155036D
:102270005091560360915703709158038DEE91E091
:1022800068D76AED72E08CE591E154DB6AE08CE599
:1022900091E15FDBFE01649107EE13E0662341F0FC
:1022A0008CE591E156DB0F5F1F4FF8016491F6CF8B
:1022B000EAEDF1E064918F01662341F08CE591E154
:1022C00048DB0F5F1F4FF8016491F6CF6AE08CE5A1
:1022D00091E13FDBFE01649107EE13E0662341F0DC
:1022E0008CE591E136DB0F5F1F4FF8016491F6CF6B
:1022F00040910C0150910D0160910E0170910F0100
:1023000081ED91E026D7409110015091110160912B
:102310001201709113018EEC91E01BD740911401D2
:102320005091150160911601709117018BEC91E0AD
:1023300010D76AED72E08CE591E1FCDA6AE08CE599
:1023400091E107DBFE01649107EE13E0662341F0A3
:102350008CE591E1FEDA0F5F1F4FF8016491F6CF33
:10236000E4EBF1E064918F01662341F08CE591E1AB
:10237000F0DA0F5F1F4FF8016491F6CF6AE08CE549
:1023800091E1E7DAFE016491C7EED3E0662339F00C
:102390008CE591E1DEDA2196FE016491F7CF409160
:1023A00000015091010160910201709103018BEADB
:1023B00091E0CFD640910401509105016091060152
:1023C0007091070188EA91E0C4D6409108015091CC
:1023D000090160910A0170910B0185EA91E0B9D67B
:1023E0006AED72E08CE591E1A5DA6AE08CE591E1B5
:1023F000DF91CF911F910F91ACCAAF92BF92CF9254
:10240000DF92EF92FF920F931F93CF93DF93CDB79D
:10241000DEB7E0970FB6F894DEBF0FBECDBF80E108
:10242000E6EAF1E0DE01919601900D928A95E1F7DE
:1024300080E1E6EBF1E0DE01519601900D928A9584
:10244000E1F780E1E6ECF1E0DE01119601900D92FA
:102450008A95E1F7DE0191966EE37FE0AE014F5E73
:102460005F4F2EE43FE0CE0101965C018EE29FE0DB
:102470008E010F5C1F4FCD90DD90ED90FD90FB0124
:10248000C192D192E192F192BF01FA01C190D19033
:10249000E190F190AF01F901C192D192E192F192F4
:1024A0009F01F501C190D190E190F1905F01FC0195
:1024B000C192D192E192F192CF01A017B107D9F662
:1024C0000E948C6F80E090E8ABE3B5E48093260F28
:1024D0009093270FA093280FB093290F8093220F7A
:1024E0009093230FA093240FB093250F10922A0FDF
:1024F00010922B0F10922C0F10922D0F80E29EE461
:10250000A0E0B0E080935E0F90935F0FA093600F08
:10251000B093610F1092120F1092130F1092140FBC
:102520001092150F80E090E0A0EAB1E480931E0FB6
:1025300090931F0FA093200FB093210F8DEC9CEC74
:10254000ACECBEE380931A0F90931B0FA0931C0F6B
:10255000B0931D0F80E090E0A0EAB0E48093160FE6
:102560009093170FA093180FB093190F10925F0557
:1025700010926005109261051092620510925B0541
:1025800010925C0510925D0510925E051092570541
:10259000109258051092590510925A0580E090E06B
:1025A000A8ECB1E48093000190930101A093020193
:1025B000B0930301109204011092050110920601DC
:1025C00010920701109208011092090110920A015D
:1025D00010920B018AE999E9A1EBB1E4809395018E
:1025E00090939601A0939701B093980161E77DE3E2
:1025F0008AE89FE30E94E9976093910170939201AA
:10260000809393019093940160E070E084EE92E4F3
:102610000E94F79760938D0170938E0180938F01D4
:10262000909390010E94E58C80E090E0A0E8BFE3E9
:102630008093890190938A01A0938B01B0938C01C0
:1026400010924D0310924E0310924F0310925003BC
:10265000109251031092520310925303109254039C
:10266000109255031092560310925703109258037C
:1026700086E696E6A8E1B3E480930C0190930D0101
:10268000A0930E01B0930F0180931001909311015C
:10269000A0931201B093130180931401909315013C
:1026A000A0931601B0931701E7EEF3E064918F0158
:1026B000662341F08CE591E14CD90F5F1F4FF80183
:1026C0006491F6CFE9E6F1E064918F01662341F071
:1026D0008CE591E13ED90F5F1F4FF8016491F6CF71
:1026E0006AE08CE591E1E0960FB6F894DEBF0FBE8C
:1026F000CDBFDF91CF911F910F91FF90EF90DF90B1
:10270000CF90BF90AF9025C90F931F93CF93DF93C6
:10271000CDB7DEB768970FB6F894DEBF0FBECDBF5A
:1027200084E690E0988F8F8B86E591E3A1E3B0E09B
:1027300089839A83AB83BC8344E0BE016B5F7F4F88
:10274000CE0147963AD943E050E0BE016B5F7F4F20
:10275000CE0101960E94B1AF892B09F0E6C040E19D
:102760006EE37FE0CE01479628D940E16EE47FE03A
:10277000CE01479622D940E16EE27FE0CE01479636
:102780001CD90E948C6F44E066E27FE0CE01479640
:1027900014D944E062E27FE0CE0147960ED944E0CE
:1027A0006AE27FE0CE01479608D944E062E17FE02B
:1027B000CE01479602D944E06EE57FE0CE01479610
:1027C000FCD844E06EE17FE0CE014796F6D844E0C5
:1027D0006AE17FE0CE014796F0D844E066E17FE011
:1027E000CE014796EAD84CE067E575E0CE01479602
:1027F000E4D842E0BE016B5E7F4FCE014796DDD844
:1028000042E0BE016D5E7F4FCE014796D6D842E0D2
:10281000BE016F5E7F4FCE014796CFD842E0BE012A
:10282000615F7F4FCE014796C8D842E0BE01635F2B
:102830007F4FCE014796C1D842E0BE01655F7F4F12
:10284000CE014796BAD844E060E071E0CE014796E9
:10285000B4D844E064E071E0CE014796AED844E0DD
:1028600068E071E0CE014796A8D844E065E971E0E0
:10287000CE014796A2D844E061E971E0CE014796C7
:102880009CD844E06DE871E0CE01479696D842E0CE
:10289000BE01675F7F4FCE0147968FD844E06DE45D
:1028A00073E0CE01479689D844E06CE071E0CE0138
:1028B000479683D844E061E573E0CE0147967DD822
:1028C00044E060E171E0CE01479677D844E065E5E9
:1028D00073E0CE01479671D844E064E171E0CE0127
:1028E00047966BD80E94E58CE7EEF3E064918F0188
:1028F000662341F08CE591E12CD80F5F1F4FF80162
:102900006491F6CFEBE8F1E064918F01662341F02A
:102910008CE591E11ED80F5F1F4FF8016491F6CF4F
:102920006AE08CE591E115D801C067DD98D9689619
:102930000FB6F894DEBF0FBECDBFDF91CF911F91D0
:102940000F91089580E090E00895089580911D0111
:1029500090911E01A0911F01B09120018093090563
:1029600090930A05A0930B05B0930C05809130015C
:1029700090913101909374058093730584E690E003
:1029800090933101809330010FB6F89480915111EA
:1029900090915211A0915311B09154110FBE809398
:1029A000680390936903A0936A03B0936B0381E07B
:1029B0000C94FA8180E00E94FA818091090590913F
:1029C0000A05A0910B05B0910C0580931D01909311
:1029D0001E01A0931F01B093200180917305909177
:1029E000740590933101809330010FB6F894809173
:1029F000511190915211A0915311B09154110FBEE9
:102A00008093680390936903A0936A03B0936B0368
:102A100008954F925F926F927F928F929F92AF92A2
:102A2000BF92CF92DF92EF92FF920F931F9340904D
:102A30001D0150901E0160901F0170902001812C9B
:102A4000E0E49E2EECE9AE2EE5E4BE2E80921D0160
:102A500090921E01A0921F01B0922001E3E6F5E0E2
:102A60006083718382839383248335834683578372
:102A7000E086F18602871387EFE2F5E0FF93EF939C
:102A8000FBEA8F2EFAEA9F2EF6EAAF2EF2E4BF2E73
:102A9000AFE6CA2EA5E0DA2E0E9427630E94C988FD
:102AA00040921D0150921E0160921F017092200100
:102AB0000F900F901F910F91FF90EF90DF90CF90AC
:102AC000BF90AF909F908F907F906F905F904F904E
:102AD00008952F923F924F925F926F927F928F92C2
:102AE0009F92AF92BF92CF92DF92EF92FF920F939D
:102AF0001F93CF93DF93CDB7DEB768970FB6F894E7
:102B0000DEBF0FBECDBF9A8B898BFC01E351F74F1F
:102B1000549023E6622E25E0722E880F991F880FAD
:102B2000991F9E878D878D599A4F9C8B8B8BDC01CB
:102B30001D921D921D921C921397F301E084F18463
:102B40000285138524813581468157816081718199
:102B500082819381EFE6CE2EE5E0DE2E0E94A66E06
:102B6000ADE4B3E02D913D914D915C91ECE0F1E04D
:102B700060817181828193810E9496A769837A83A3
:102B80008B839C83209151033091520340915303D6
:102B900050915403609110017091110180911201C4
:102BA000909113010E9496A76D837E838F839887EF
:102BB000209155033091560340915703509158038B
:102BC0006091140170911501809116019091170187
:102BD0000E9496A769877A878B879C8721E030E0DF
:102BE0002C0F3D1F8D859E85280F391F3E8B2D8B09
:102BF000D901CD90DD90ED90FC90652D550C770BB3
:102C0000880B990B0E9412A91B012C01ED85FE85F2
:102C1000E35EFA4FF88BEF8720E030E040EC5FE3B3
:102C2000C701B6010E9445ABA20191010E9445ABCC
:102C3000AF85B8896D937D938D939C931397ED85A4
:102C4000FE85EE5CFE4FF88FEF8B60817181828193
:102C5000938160931D0170931E0180931F019093D7
:102C6000200120E030E040E752E40E9477A84B01C9
:102C70005C01E0902505F090260500912705109154
:102C8000280520912105309122054091230550917E
:102C90002405ADE1B5E06D917D918D919C91AFE200
:102CA000B5E0BF93AF93F9E2CF2EF5E0DF2E0E949F
:102CB00027630E94C988AB89BC891D921D921D9211
:102CC0001C921397F301E084F1840285138524811B
:102CD0003581468157816081718182819381AFE620
:102CE000CA2EA5E0DA2E0E94A66E2D853E852051C3
:102CF000374F3901F90185919591A591B491BC01A6
:102D0000CD019058A20191010E9445ABAF85B889D1
:102D10006D937D938D939C93139720E030E040E773
:102D200052E460911D0170911E0180911F019091EC
:102D300020010E9477A84B015C01E0902505F090EE
:102D40002605009127051091280520912105309135
:102D500022054091230550912405EDE1F5E06081C5
:102D6000718182819381AFE2B5E0BF93AF93B9E205
:102D7000CB2EB5E0DB2E0E9427630E94C988F301A9
:102D800065917591859194919B01AC010E9497A7E3
:102D9000A20191010E9445ABAF85B8896D937D93E7
:102DA0008D939C93139720E030E040E05FE3EF8940
:102DB000F88D60817181828193810E9445AB60931F
:102DC0001D0170931E0180931F019093200120E04C
:102DD00030E040E752E40E9477A84B015C01E090AC
:102DE0002505F090260500912705109128052091D2
:102DF0002105309122054091230550912405ADE134
:102E0000B5E06D917D918D919C91AFE2B5E0BF935E
:102E1000AF930E9427630E94C988EDE4F3E08081AC
:102E20009181A281B38189839A83AB83BC83809192
:102E3000100190911101A0911201B09113018D83A5
:102E40009E83AF83B8878091550390915603A091DC
:102E50005703B091580389879A87AB87BC87AD89A0
:102E6000BE896D917D918D919C91ED85FE85E95A8C
:102E7000FA4F4080518062807380A30192010E94CA
:102E800097A76B017C01EB89FC8960837183828346
:102E900093830D851E85055B1A4FED85FE85E35BEB
:102EA000FC4FA301920160817181828193810E9414
:102EB00097A7D8016D937D938D939C9313970D8560
:102EC0001E850E5D1E4FED85FE85E45FFE4FA3015E
:102ED000920160817181828193810E9497A7F8019C
:102EE0006083718382839383AF85B889CD92DD92AD
:102EF000ED92FC92139710921D0110921E011092F8
:102F00001F01109220010E94F381E989FA89E85B90
:102F1000FA4F81E080830F900F900F900F900F90E9
:102F20000F9068960FB6F894DEBF0FBECDBFDF914D
:102F3000CF911F910F91FF90EF90DF90CF90BF90B6
:102F4000AF909F908F907F906F905F904F903F9049
:102F50002F9008952F923F924F925F926F927F929F
:102F60008F929F92AF92BF92CF92DF92EF92FF9299
:102F70000F931F93CF93DF9382E591E00E94539AC2
:102F800060913A0170913B0180913C0190913D012B
:102F900060931D0170931E0180931F019093200187
:102FA00020E030E040E752E40E9477A84B015C014A
:102FB000C3E6D5E02C813D814E815F8168817981B6
:102FC0008A819B81EFE22E2EE5E03E2E3F922F92EA
:102FD000FFE6CF2EF5E0DF2EE12CF12C00E211EC24
:102FE0000E9427630E94C98882E00E9425894B01C4
:102FF0005C012C813D814E815F81688179818A816C
:103000009B81850174010E94A66EE8EFF8E025918E
:10301000359145915491C501B4010E9497A72B01A8
:103020003C0120E030E040E752E460911D017091E6
:103030001E0180911F01909120010E9477A84B01F1
:103040005C012C813D814E815F81688179818A811B
:103050009B813F922F92830172010E9427630E94FD
:10306000C98820E030E040E85EE360913A01709169
:103070003B0180913C0190913D010E9445AB6093E2
:103080001D0170931E0180931F0190932001E8EFB2
:10309000F8E0C590D590E590F49020E030E040E76E
:1030A00052E40E9477A84B015C01A7019601C70179
:1030B000B6010E9497A79B01AC01C301B2010E9417
:1030C00096A77B018C012C813D814E815F816881B7
:1030D00079818A819B813F922F92BFE6CB2EB5E00A
:1030E000DB2E0E9427630E94C98882E00E94258906
:1030F0007B018C01688779878A879B872C813D813A
:103100004E815F81688179818A819B810E94A66E50
:103110000F900F900F900F900F900F90DF91CF9125
:103120001F910F91FF90EF90DF90CF90BF90AF90E5
:103130009F908F907F906F905F904F903F902F90D7
:103140000895AB01770F660B770B0C94F0A40C94E9
:10315000FDA4CF92DF92EF92FF92CF93DF93EC0129
:103160006A017B01FE016491662331F08CE591E1F7
:103170000E94A90C2196F6CF22E030E0B701A6010B
:103180008CE591E1DF91CF91FF90EF90DF90CF90B0
:10319000DECFCF92DF92EF92FF92CF93DF93EC01DD
:1031A0006A017B01FE016491662331F08CE591E1B7
:1031B0000E94A90C2196F6CF22E030E0B701A601CB
:1031C0008CE591E1DF91CF91FF90EF90DF90CF9070
:1031D000BECFCF92DF92EF92FF92CF93DF93EC01BD
:1031E0006A017B01FE016491662331F08CE591E177
:1031F0000E94A90C2196F6CF20E0B701A6018CE52C
:1032000091E1DF91CF91FF90EF90DF90CF900C9400
:1032100094A4CF93DF9300D0CDB7DEB720914E11A9
:1032200030914F11CE0101962115310519F48A56BE
:10323000914102C0821B930B9A83898389819A8171
:103240000F900F90DF91CF910895CF93DF9320914E
:10325000720330917303243031050CF064C0BC015B
:10326000209174033091750340E6429FC001439F53
:10327000900D112484589C4F0E94AAAFECEFF8E007
:103280006491EF01662341F08CE591E10E94A90C65
:103290002196FE016491F6CFE2EEF8E06491EF0131
:1032A000662341F08CE591E10E94A90C2196FE0174
:1032B0006491F6CF809174039091750320E6289F66
:1032C000B001299F700D112464587C4F8CE591E169
:1032D0000E949A0CE0EEF8E06491EF01662341F061
:1032E0008CE591E10E94A90C2196FE016491F6CF34
:1032F0006AE08CE591E10E94A90C809174039091A1
:103300007503019664E070E00E942EAC9093750303
:10331000809374038091720390917303019690934C
:10332000730380937203DF91CF910895CF93DF935E
:103330002091720330917303243031050CF064C086
:10334000BC01209174033091750340E6429FC00197
:10335000439F900D112484589C4F0E9445AFECEF81
:10336000F8E06491EF01662341F08CE591E10E9461
:10337000A90C2196FE016491F6CFE5EDF8E0649189
:10338000EF01662341F08CE591E10E94A90C2196A2
:10339000FE016491F6CF809174039091750320E64D
:1033A000289FB001299F700D112464587C4F8CE533
:1033B00091E10E949A0CE3EDF8E06491EF0166233D
:1033C00041F08CE591E10E94A90C2196FE016491E7
:1033D000F6CF6AE08CE591E10E94A90C809174031C
:1033E00090917503019664E070E00E942EAC90937A
:1033F0007503809374038091720390917303019617
:103400009093730380937203DF91CF910895EF92AD
:10341000FF920F931F93CF93DF9380E885BF85BF03
:1034200040E052EC61E070E08CE591E10E941BA766
:10343000EDECF8E06491EF01662341F08CE591E159
:103440000E94A90C2196FE016491F6CF6AE08CE5FA
:1034500091E10E94A90CCCEFD8E0FE0164918E01AD
:10346000662349F08CE591E10E94A90C0F5F1F4F84
:10347000F8016491F5CF14B710FF15C0E5ECF8E042
:1034800064917F01662351F08CE591E10E94A90CC3
:10349000FFEFEF1AFF0AF7016491F4CF6AE08CE5C1
:1034A00091E10E94A90C11FF15C0E5EBF8E06491D1
:1034B0007F01662351F08CE591E10E94A90CFFEF9A
:1034C000EF1AFF0AF7016491F4CF6AE08CE591E10D
:1034D0000E94A90C12FF15C0E4EAF8E064917F0194
:1034E000662351F08CE591E10E94A90CFFEFEF1AE1
:1034F000FF0AF7016491F4CF6AE08CE591E10E9444
:10350000A90C13FF15C0E4E9F8E064917F0166237C
:1035100051F08CE591E10E94A90CFFEFEF1AFF0A30
:10352000F7016491F4CF6AE08CE591E10E94A90C67
:1035300015FF14C0E4E8F8E064918F01662349F0B8
:103540008CE591E10E94A90C0F5F1F4FF801649177
:10355000F5CF6AE08CE591E10E94A90C14BEECE77E
:10356000F8E064918F01662349F08CE591E10E94B7
:10357000A90C0F5F1F4FF8016491F5CFE6E7F8E063
:1035800064918F01662349F08CE591E10E94A90CBA
:103590000F5F1F4FF8016491F5CF6AE08CE591E170
:1035A0000E94A90CFE0164910CEF18E0662349F01B
:1035B0008CE591E10E94A90C0F5F1F4FF801649107
:1035C000F5CFE6E6F8E064918F01662349F08CE5DB
:1035D00091E10E94A90C0F5F1F4FF8016491F5CF94
:1035E000E1E5F8E064918F01662349F08CE591E113
:1035F0000E94A90C0F5F1F4FF8016491F5CFE5E41D
:10360000F8E064918F01662349F08CE591E10E9416
:10361000A90C0F5F1F4FF8016491F5CFEDE1F8E0C1
:1036200064918F01662349F08CE591E10E94A90C19
:103630000F5F1F4FF8016491F5CF6AE08CE591E1CF
:103640000E94A90CE2E1F8E064918F01662349F041
:103650008CE591E10E94A90C0F5F1F4FF801649166
:10366000F5CFE6E0F8E064918F01662349F08CE540
:1036700091E10E94A90C0F5F1F4FF8016491F5CFF3
:103680006AE08CE591E10E94A90CFE016491CCEF07
:10369000D8E0662341F08CE591E10E94A90C2196C7
:1036A000FE016491F6CFE7EFF7E06491EF01662346
:1036B00041F08CE591E10E94A90C2196FE016491F4
:1036C000F6CFA7DDBC018CE591E13BDDE0EEF7E054
:1036D0006491EF01662341F08CE591E10E94A90C11
:1036E0002196FE016491F6CF60ED74E08CE591E1E6
:1036F00028DD6AE08CE591E10E94A90C1092780324
:103700001092790310927A0310927B030E94841323
:103710000E94C78F0E94A3610E9467890E946C88E3
:10372000FFEF23ED80E3F15020408040E1F700C03F
:103730000000DF91CF911F910F91FF90EF900895BE
:1037400080916C0390916D0360E070E001960C94A1
:10375000A7AC80916C0390916D034AE050E060E06B
:1037600070E001960C940DAE682F880F770B2091B6
:1037700076033091770340E6429FC001439F900D4E
:10378000112484589C4F0E949FAF9C0190936D031D
:1037900080936C0381E0232B09F480E00895CF939C
:1037A000DF930FB6F8948091511190915211A0912E
:1037B0005311B09154110FBE809368039093690325
:1037C000A0936A03B0936B03E0917603F0917703C3
:1037D000E858FC4F8081811115C0E2E8F4E0649163
:1037E000EF01662341F08CE591E10E94A90C21963E
:1037F000FE016491F6CF6AE08CE591E1DF91CF9113
:103800000C94A90CDF91CF9108957F928F929F9293
:10381000AF92BF92CF92DF92EF92FF920F931F93DE
:10382000CF93DF9383E6E82E85E0F82E0DE115E0D7
:1038300095E7C92E95E0D92EC2EAD2E07C2E84E02D
:10384000780E899191DF882309F17ADF4B015C01C1
:10385000F6016081611102C06091FC0470E080E0BB
:1038600090E00E9412A9F7012081318142815381A9
:103870000E9445AB9B01AC01C501B4010E9497A712
:10388000F80160837183828393830AC0F70180818A
:103890009181A281B381F80180839183A283B38354
:1038A000F4E0EF0EF11C0C5F1F4F8FEFC81AD80A1F
:1038B0007C12C7CF86E458DF8823D1F041DF6B014B
:1038C0007C0160930D0570930E0580930F05909316
:1038D000100520E030E0A9010E9473AA181644F4F4
:1038E000C0921D01D0921E01E0921F01F0922001B2
:1038F000DF91CF911F910F91FF90EF90DF90CF90CC
:10390000BF90AF909F908F907F9008957EDF89E465
:103910002BDF882351F014DF60931105709312059B
:10392000809313059093140508C01092110510920E
:10393000120510921305109214058AE415DF8823EE
:1039400051F0FEDE60931505709316058093170500
:10395000909318050895109215051092160510926F
:103960001705109218050895CF92DF92EF92FF92FB
:10397000CF93DF93EC01C0904B05D0904C05E090C5
:103980004D05F0904E05A7019601688179818A81E5
:103990009B810E9470A887FF04C0C882D982EA82F6
:1039A000FB82C0904F05D0905005E0905105F090FB
:1039B0005205A70196016C817D818E819F810E94B5
:1039C00070A887FF04C0CC82DD82EE82FF82C090A7
:1039D0005305D0905405E0905505F0905605A70189
:1039E0009601688579858A859B850E9470A887FFE6
:1039F00004C0C886D986EA86FB86C0902201D09092
:103A00002301E0902401F0902501A701960168812F
:103A100079818A819B810E9473AA181624F4C88236
:103A2000D982EA82FB82C0902601D0902701E090E3
:103A30002801F0902901A70196016C817D818E817A
:103A40009F810E9473AA181624F4CC82DD82EE8234
:103A5000FF82C0902A01D0902B01E0902C01F090C1
:103A60002D01A7019601688579858A859B850E942D
:103A700073AA181624F4C886D986EA86FB86DF91D5
:103A8000CF91FF90EF90DF90CF9008954F925F928B
:103A90006F927F928F929F92AF92BF92CF92DF925E
:103AA000EF92FF920F931F93CF93DF93CDB7DEB7C3
:103AB00028970FB6F894DEBF0FBECDBF8DE195E01D
:103AC00053DF0FB6F8948091511190915211A0914B
:103AD0005311B09154110FBE809368039093690302
:103AE000A0936A03B0936B0320911D0530911E05CE
:103AF00040911F055091200529833A834B835C83B5
:103B000060916305709164058091650590916605EB
:103B10000E9470A8409021055090220560902305D6
:103B200070902405209125053091260540912705A8
:103B3000509128052D833E834F83588781111BC0E8
:103B4000A3019201609167057091680580916905F4
:103B500090916A050E9470A881110DC020E030E0AC
:103B600040E752E460911D0170911E0180911F0198
:103B7000909120011EC06091300170913101072E9B
:103B8000000C880B990B0E9412A920911D01309105
:103B90001E0140911F01509120010E9445AB20E081
:103BA00030E040E752E40E9477A820E030E048ECA3
:103BB00052E40E9477A84B015C018FE295E09F934D
:103BC0008F9389E2C82E85E0D82EED80FE800F818C
:103BD0001885A301920169817A818B819C810E9461
:103BE00027630F900F9080911D0590911E05A09165
:103BF0001F05B09120058093630590936405A09301
:103C00006505B09366058091210590912205A091EC
:103C10002305B09124058093670590936805A093D0
:103C20006905B0936A058091250590912605A091BC
:103C30002705B091280580936B0590936C05A093A0
:103C40006D05B0936E058091290590912A05A0918C
:103C50002B05B0912C0580936F0590937005A09370
:103C60007105B093720528960FB6F894DEBF0FBEAB
:103C7000CDBFDF91CF911F910F91FF90EF90DF901B
:103C8000CF90BF90AF909F908F907F906F905F90FC
:103C90004F900895AF92BF92CF92DF92EF92FF9232
:103CA0000F931F93CF93DF93F82EE1E1F5E024818A
:103CB00035814681578160817181828193810E9423
:103CC00080AAEB01182F092F60913001709131010A
:103CD000072E000C880B990B0E9412A920911D0140
:103CE00030911E0140911F01509120010E9445AB6F
:103CF00020E030E040E752E40E9477A820E030E086
:103D000048EC52E40E9477A85B016C0180912F057A
:103D10008F93FF920F931F93DF93CF9382E0E82E50
:103D200001E020E041E155E06DE175E083E695E0DA
:103D30000E94BD5AE3E6F5E0ADE1B5E04D915D913D
:103D40006D917C91139740835183628373831496A2
:103D50004D915D916D917C91179744835583668356
:103D6000778318964D915D916D917C911B9740875B
:103D70005187628773871C968D919D910D90BC91A0
:103D8000A02D84879587A687B7870FB6F894809172
:103D9000511190915211A0915311B09154110FBE35
:103DA0008093680390936903A0936A03B0936B03B5
:103DB0000F900F900F900F900F900F90DF91CF9179
:103DC0001F910F91FF90EF90DF90CF90BF90AF9039
:103DD0000895F8940E94E590779A10924805769A93
:103DE00010924905479A10924A05439A8C9A8D9AE7
:103DF000E2E0F9E06491EF01662341F08CE591E1A6
:103E00000E94A90C2196FE016491F6CFE3E6F4E04E
:103E10006491EF01662341F08CE591E10E94A90CC9
:103E20002196FE016491F6CF6AE08CE591E10E9453
:103E3000A90CFFCF0F931F930FB6F89480915111E7
:103E400090915211A0915311B09154110FBE009155
:103E500068031091690320916A0330916B034091CC
:103E60006403509165036091660370916703801B42
:103E7000910BA20BB30B481759076A077B0728F46D
:103E8000452B462B472B09F0A4DF40911901509197
:103E90001A0160911B0170911C01411551056105CA
:103EA0007105D1F00FB6F894809151119091521193
:103EB000A0915311B09154110FBE801B910BA20B16
:103EC000B30B481759076A077B0730F490910C0A27
:103ED00080910B0A981721F01F910F910C94E362C7
:103EE000779A10924805769A10924905479A10924F
:103EF0004A05439A8C9A8D9AEFCFCF93DF930E9415
:103F0000E59080915A03811136C081E080935A0375
:103F10008091010590910205A0910305B0910405DF
:103F20008093FD049093FE04A093FF04B0930005DA
:103F3000E2E0F9E06491EF01662341F08CE591E164
:103F40000E94A90C2196FE016491F6CFEDEEF3E0FC
:103F50006491EF01662341F08CE591E10E94A90C88
:103F60002196FE016491F6CF6AE08CE591E1DF9144
:103F7000CF910C94A90CDF91CF91089580915A03B1
:103F80000895EF92FF921F93CF93DF93EC018091FE
:103F90002F0580935B0384E5E7DB182F811102C0B6
:103FA00010E042C0CDDB0E94E4A860935B03633065
:103FB000B8F3ECEFF8E064917F01662351F08CE5F3
:103FC00091E10E94A90C8FEFE81AF80AF7016491B9
:103FD000F4CFC936D10581F034F4C836D105A9F43F
:103FE00066ED71E00EC0CD36D10549F0CA3DD10570
:103FF00061F46BE172E005C06DEE71E002C064E057
:1040000072E08CE591E10E949A0C40915B0350E0D4
:1040100060E070E020E08CE591E10E9494A46AE009
:104020008CE591E10E94A90C812FDF91CF911F9126
:10403000FF90EF9008952AEA32E0FC01318320835B
:104040002681222319F003960C942146089589E7CE
:1040500095E00C945C4F0F931F93CF93DF9387E30E
:1040600097E0E9DF86EE95E0892B51F488EC95E046
:10407000E2DF88EA95E0DF91CF911F910F91DBCFCE
:10408000C0E0D0E00AEA12E0CE0187589A4FFC0166
:10409000E558FE4F1183008336968081882329F0EE
:1040A000CE018950994F0E9421466E97C43D8EEFF4
:1040B000D80751F7DBCFCF93DF938CE591E10E94D6
:1040C00081A7E5E8F4E06491EF01662341F08CE517
:1040D00091E10E94A90C2196FE016491F6CF4091D6
:1040E00001055091020560910305709104054F5F31
:1040F0005F4F6F4F7F4F8CE591E10E94F0A46AE023
:104100008CE591E10E94A90CDF91CF9148CB2F92D1
:104110003F924F925F926F927F928F929F92AF9257
:10412000BF92CF92DF92EF92FF920F931F93CF93A4
:10413000DF93CDB7DEB76E970FB6F894DEBF0FBE34
:10414000CDBF20E6F22E34E0C32ED12C43EAA42EBC
:1041500046E0B42E59E1852E57E0952EEE24E394E7
:104160008CE591E10E94A5A5181619060CF0FFC177
:10417000809172039091730304970CF0F8C18CE561
:1041800091E10E94DEA58093710320916F0330912D
:1041900070038A3061F08D3051F08A3321F49091B0
:1041A0006E03992321F02F3531050CF450C12115F0
:1041B000310519F410926E0343C3809174039091FA
:1041C0007503F89E8001F99E100D1124200F311FF8
:1041D000F901E458FC4F108220916E03211132C185
:1041E00010926E03FC01E858FC4F1082C8018458FD
:1041F0009C4F3C016EE470E00E949FAF009709F471
:104200006DC090936D0380936C0386199709800F9E
:10421000911F4AE050E060E070E083589C4F0E949C
:104220000DAE609305057093060580930705909386
:1042300008050091010510910205209103053091B8
:1042400004050F5F1F4F2F4F3F4F60907403709016
:104250007503601771078207930709F417C1F69C6D
:10426000C001F79C900D112462EC77E084589C4FBC
:104270000E9464AF892B09F009C1E2E0F9E0649182
:104280008F01662349F08CE591E10E94A90C0F5F34
:104290001F4FF8016491F5CFEFE8F7E064918F01CB
:1042A000662349F08CE591E10E94A90C0F5F1F4F36
:1042B000F8016491F5CF409101055091020560919C
:1042C0000305709104058CE591E10E94F0A46AE079
:1042D0008CE591E10E94A90CEEDE37C06AE270E045
:1042E000C3010E949FAF892B09F444C0E2E0F9E0CA
:1042F00064918F01662349F08CE591E10E94A90C3D
:104300000F5F1F4FF8016491F5CFECE1F7E0649186
:104310008F01662349F08CE591E10E94A90C0F5FA3
:104320001F4FF8016491F5CF4091010550910205AE
:1043300060910305709104058CE591E10E94F0A461
:104340006AE08CE591E10E94A90C10927003109232
:104350006F0376C28091050590910605A09107052F
:10436000B09108058093010590930205A093030581
:10437000B09304058091740390917503F89E8001B9
:10438000F99E100D1124C80184589C4F3C0167E42C
:1043900070E00E949FAF009709F43FC090936D03B7
:1043A00080936C0386199709800F911F60E070E07D
:1043B00083589C4F0E94A7AC0E94DFA8643071050F
:1043C00060F580915A03811119C08091790581119E
:1043D00024C0F401649109E117E0662349F08CE5FB
:1043E00091E10E94A90C0F5F1F4FF8016491F5CF76
:1043F0006AE08CE591E10E94A90C0FC0F50164917F
:1044000003EA16E06623A1F38CE591E10E94A90C72
:104410000F5F1F4FF8016491F5CF80917403909165
:1044200075030196B6010E942EAC9093750380939C
:1044300074038091720390917303019690937303B8
:10444000809372031092700310926F0389CE8B33A6
:1044500011F4E0926E0390916E03911181CE409120
:10446000740350917503B9016F5F7F4F70937003B0
:1044700060936F03F49EF001F59EF00D11242E0F52
:104480003F1FF901E458FC4F80836ACEF69C8001FF
:10449000F79C100D1124C80184589C4F3C016AE21E
:1044A00070E00E949FAF009709F442C020E0512CB9
:1044B000F801E20FF11DE458FC4F30813A3219F057
:1044C0002F5F5326F5CF90936D0380936C0386196D
:1044D0009709800F911F60E070E083589C4F0E9405
:1044E000A7AC0E94DFA8252D30E02617370709F476
:1044F00031CFE2E0F9E064918F01662349F08CE569
:1045000091E10E94A90C0F5F1F4FF8016491F5CF54
:10451000E0E7F7E064918F01662309F4CCCE8CE5E7
:1045200091E10E94A90C0F5F1F4FF8016491F4CF35
:10453000E2E0F9E064918F01662349F08CE591E1B6
:104540000E94A90C0F5F1F4FF8016491F5CFE6E4BC
:10455000F7E064918F01662309F4ADCE8CE591E11B
:104560000E94A90C0F5F1F4FF8016491F4CF809156
:104570007B05882309F464C180916F0390917003D7
:10458000892B09F05DC18091720390917303892B8F
:1045900011F410924C0300E611E08CE3C82ED12CEC
:1045A000E12CF12C90E1492E9EE0592E612C712CCA
:1045B000CE0101961C014091EF075091F0076091E8
:1045C000F1077091F2078091E7079091E807A091B9
:1045D000E907B091EA07481759076A077B0708F00F
:1045E0002FC1809172039091730304970CF028C13E
:1045F00080914C03811124C180914207909143071F
:10460000A0914407B09145078093EF079093F0077E
:10461000A093F107B093F2078AE397E00E947A44EF
:10462000AC01982F409371038A30B9F09D30A9F006
:10463000933229F480916E03882379F002C09A3373
:10464000C9F320916F03309170032F3531052CF49D
:104650004F3FAFEF5A0709F0D5C04091EF07509197
:10466000F0076091F1077091F2078091E707909150
:10467000E807A091E907B091EA07481759076A07C8
:104680007B0708F484C0E0E9F6E064915F016623EB
:1046900051F08CE591E10E94A90CFFEFAF1ABF0A1F
:1046A000F5016491F4CF6AE08CE591E10E94A90CD8
:1046B0000FB6F8948091511190915211A09153111D
:1046C000B09154110FBE80935C0390935D03A0934F
:1046D0005E03B0935F038090600390906103A090AD
:1046E0006203B0906303BC01CD01681979098A099E
:1046F0009B0928EE33E040E050E00E9441AC4901C4
:104700005A01CA01B901A70196010E9441ACCA0130
:10471000B901A70196010E9441AC7F936F93C50137
:10472000B401A30192010E9441AC3F932F93ACE7E7
:10473000B6E0BF93AF933F922F920E94CEAFECEFC3
:10474000F8E064910FB6F894DEBF0FBECDBF5F01F5
:10475000662351F08CE591E10E94A90C9FEFA91A04
:10476000B90AF5016491F4CFB1018CE591E10E94A1
:104770009A0C6AE08CE591E10E94A90C89E795E02A
:104780000E94995861E089E795E00E948A578091DC
:104790007103833211F410934C0320916F03309115
:1047A00070032115310509F405CD809174039091B2
:1047B0007503089FF001099FF00D11242E0F3F1F74
:1047C000F901E458FC4F1082FC01E858FC4F1083BB
:1047D00020917203309173032F5F3F4F3093730327
:1047E00020937203019664E070E00E942EAC9093D7
:1047F00075038093740310926E03109270031092ED
:104800006F03D9CE9B3311F410936E0380916E0326
:104810008111D1CE8091740390917503B9016F5FBE
:104820007F4F7093700360936F03089FF001099F9F
:10483000F00D1124E20FF31FE458FC4F4083BBCE70
:104840006E960FB6F894DEBF0FBECDBFDF91CF914D
:104850001F910F91FF90EF90DF90CF90BF90AF909E
:104860009F908F907F906F905F904F903F902F9090
:1048700008952F923F924F925F926F927F928F9204
:104880009F92AF92BF92CF92DF92EF92FF920F93DF
:104890001F93CF93DF93CDB7DEB7C75FD1090FB6B4
:1048A000F894DEBF0FBECDBF87E40E94B41B8823FF
:1048B00011F40C94DE2E0E94A01B0E94DFA86C3124
:1048C000710509F4C0C09CF46230710509F44FC051
:1048D00024F477FF43C00C940E3D6330710509F456
:1048E0004EC06430710509F454C00C940E3D6A3515
:1048F000710511F40C94732E2CF56D31710509F4CA
:1049000035C46E31710511F00C940E3D0E94C988BA
:104910000E94A61480913A0190913B01A0913C0124
:10492000B0913D0180931D0190931E01A0931F0142
:10493000B09320010E94AA17E2E1F6E064918F0192
:104940000C940D2E6B35710511F40C94772E6C358B
:10495000710511F40C947C2E0C940E3D80915A0339
:10496000811105C00E94051C91D80C94C13E809114
:104970005A03811104C00E94861C81E007C0809107
:104980005A03811106C00E94861C80E083D90C94D2
:10499000C13E80E50E94B41B882339F00E94A01B11
:1049A0000E94E4A86B017C0103C0C12CD12C7601CC
:1049B00083E50E94B41B882361F00E94A01B20E0C5
:1049C00030E04AE754E40E9445AB0E94E4A86B0142
:1049D0007C010E94C9880FB6F89480915111909182
:1049E0005211A0915311B09154110FBEC80ED91E8F
:1049F000EA1EFB1E0FB6F89480915111909152114E
:104A0000A0915311B09154110FBE809368039093FD
:104A10006903A0936A03B0936B030FB6F894809177
:104A2000511190915211A0915311B09154110FBE98
:104A30008C159D05AE05BF0510F00C940E3D0E942F
:104A40003A8DF8D9EACF82E591E00E94539A80919D
:104A50001D0190911E01A0911F01B0912001809332
:104A6000090590930A05A0930B05B0930C0580915E
:104A7000300190913101909374058093730584E621
:104A800090E090933101809330010FB6F8948091BB
:104A9000511190915211A0915311B09154110FBE28
:104AA0008093680390936903A0936A03B0936B03A8
:104AB00081E00E94FA818091630590916405A09144
:104AC0006505B091660580931D0590931E05A09322
:104AD0001F05B09320058091670590916805A0910E
:104AE0006905B0916A058093210590932205A093F2
:104AF0002305B093240580916B0590916C05A091DE
:104B00006D05B0916E058093250590932605A093C1
:104B10002705B093280580916F0590917005A091AD
:104B20007105B09172058093290590932A05A09391
:104B30002B05B0932C0510921D0110921E011092AE
:104B40001F011092200188E50E94B41B882311F0F8
:104B500080E00AC089E50E94B41B8111F9CF8AE583
:104B60000E94B41B91E089278093210181110C944C
:104B7000113D88E50E94B41B81110C94113D809178
:104B8000210181110C94173D89E50E94B41B81110C
:104B90000C94173D88E50E94B41B8823D1F00E9435
:104BA000A91B672B682B692BA1F00E94A01B2091E9
:104BB0005705309158054091590550915A050E946A
:104BC00097A7609363057093640580936505909340
:104BD000660589E50E94B41B8823D1F00E94A91BB9
:104BE000672B682B692BA1F00E94A01B20915B050D
:104BF00030915C0540915D0550915E050E9497A73C
:104C000060936705709368058093690590936A05C2
:104C100080912101882309F41CC120914D0330911A
:104C20004E0340914F035091500360910C017091DD
:104C30000D0180910E0190910F010E9496A720E036
:104C400030E040E05FE30E9445AB209100013091ED
:104C5000010140910201509103010E9496A76B014E
:104C60007C0120E030E0A9010E9473AA20E030E03E
:104C700040E05FE387FD05C0C701B6010E9497A72A
:104C800004C0C701B6010E9496A70E94DFA80E9437
:104C900012A960931D0570931E0580931F059093C4
:104CA00020052091510330915203409153035091BC
:104CB0005403609110017091110180911201909143
:104CC00013010E9496A720E030E040E05FE30E94DD
:104CD00045AB2091040130910501409106015091AE
:104CE00007010E9496A76B017C0120E030E0A9013A
:104CF0000E9473AA20E030E040E05FE387FD05C03A
:104D0000C701B6010E9497A704C0C701B6010E945F
:104D100096A70E94DFA80E9412A9609321057093B4
:104D200022058093230590932405EFEEF8E0E491AB
:104D30002CEFE202F0011124BF01FF0F880B990B49
:104D40000E9412A96093250570932605809327057C
:104D50009093280580E090E4ACE9B5E480931D01D0
:104D600090931E01A0931F01B093200110926B0538
:104D700010926C0510926D0510926E0520916705DA
:104D8000309168054091690550916A05609163050D
:104D90007091640580916505909166051FE6C12EAE
:104DA00015E0D12EE12CF12C87010E94A66E809097
:104DB0001D0190901E01A0901F01B0902001E09075
:104DC0002505F090260500912705109128052091D2
:104DD00021053091220540912305509124056091D1
:104DE0001D0570911E0580911F0590912005EFE231
:104DF000F5E0FF93EF93E9E2CE2EE5E0DE2E0E9490
:104E000027630E94C98880911D0590911E05A0917D
:104E10001F05B09120058093630590936405A093CE
:104E20006505B09366058091210590912205A091BA
:104E30002305B09124058093670590936805A0939E
:104E40006905B0936A0582E090E00E9469150F90B1
:104E50000F908AE50E94B41B882309F40DC180914C
:104E60004805882309F4C6C080914905882309F4C0
:104E7000C1C08090630590906405A0906505B090D6
:104E8000660520910001309101014091020150918D
:104E90000301C501B4010E9497A76B017C01209119
:104EA0004B0530914C0540914D0550914E050E94A7
:104EB00073AA87FDC3C02091220130912301409144
:104EC000240150912501C701B6010E9470A818164F
:104ED0000CF4B4C040906705509068056090690577
:104EE00070906A05209104013091050140910601FE
:104EF00050910701C301B2010E9497A76B017C0189
:104F000020914F0530915005409151055091520527
:104F10000E9473AA87FD92C020912601309127013B
:104F20004091280150912901C701B6010E9470A843
:104F300018160CF483C010926B0510926C05109239
:104F40006D0510926E05AFE6CA2EA5E0DA2EE12CB3
:104F5000F12C8701A3019201C501B4010E94A66E44
:104F6000EFEEF8E0E4913CEFE302F0011124BF0121
:104F7000FF0F880B990B0E9412A97B018C01609393
:104F8000250570932605809327059093280580902A
:104F9000560F9090570FA090580FB090590F8092D5
:104FA0001D0190921E01A0921F01B092200120913C
:104FB00021053091220540912305509124056091EF
:104FC0001D0570911E0580911F0590912005EFE24F
:104FD000F5E0FF93EF93B9E2CB2EB5E0DB2E0E9414
:104FE00027630E94C98882E090E00E9469150F90B3
:104FF0000F9042C0ECEFF8E064918F01662349F016
:105000008CE591E10E94A90C0F5F1F4FF80164919C
:10501000F5CFEAE6F6E064918F01662349F08CE56E
:1050200091E10E94A90C0F5F1F4FF8016491F5CF29
:105030006AE08CE591E10E94A90C1EC0ECEFF8E05B
:1050400064918F01662349F08CE591E10E94A90CDF
:105050000F5F1F4FF8016491F5CFE7E5F6E064912B
:105060008F01662329F38CE591E10E94A90C0F5F63
:105070001F4FF8016491F5CF8AE50E94B41B882385
:10508000D1F00E94A91B672B682B692BA1F00E940D
:10509000A01B20915F053091600540916105509102
:1050A00062050E9497A760936B0570936C058093CF
:1050B0006D0590936E058091210181110C941D3D29
:1050C0008AE50E94B41B81110C941D3DE0906B0594
:1050D000F0906C0500916D0510916E0520916705AB
:1050E000309168054091690550916A0560916305AA
:1050F000709164058091650590916605FFE6CF2E5D
:10510000F5E0DF2E0E94A66E80E00E94FA81809179
:10511000090590910A05A0910B05B0910C058093AB
:105120001D0190931E01A0931F01B0932001809157
:1051300073059091740590933101809330010FB6FF
:10514000F8948091511190915211A0915311B09106
:1051500054110FBE8093680390936903A0936A0370
:10516000B0936B030E94F3810C940E3D0E94C9889A
:1051700082E591E00E94539ACE0187559F4F0E948D
:105180002F6EC755DF4F688179818A819B81C95A0B
:10519000D040609363057093640580936505909398
:1051A0006605C355DF4F288139814A815B81CD5A1D
:1051B000D04020936705309368054093690550936C
:1051C0006A05CF54DF4FE880F9800A811B81C15BFB
:1051D000D040E0926B05F0926C0500936D05109342
:1051E0006E05EFE6CE2EE5E0DE2E0E94A66E0E9452
:1051F000A61480913A0190913B01A0913C01B0919D
:105200003D0180931D0190931E01A0931F01B09357
:105210002001C0900001D0900101E0900201F090C7
:10522000030120E030E040E251ECC701B6010E94EA
:1052300073AA20914D0330914E0340914F0350913A
:10524000500387FD11C060910C0170910D01809198
:105250000E0190910F010E9496A720E030E040E2FD
:1052600051E40E9496A70EC060910C0170910D014F
:1052700080910E0190910F010E9496A7A7019601BF
:105280000E9497A74B015C0120E030E040E251E42E
:10529000C701B6010E9470A8181634F0C12CD12C99
:1052A00010E2E12E11E4F12EA7019601C501B4012F
:1052B0000E9496A720E030E040E05FE30E9445AB0B
:1052C0000E94DFA8C851DF4F79836883C85ED04051
:1052D000E0900401F0900501009106011091070192
:1052E00020E030E040E251ECB701C8010E9473AA0F
:1052F0002091510330915203409153035091540334
:1053000087FD11C06091100170911101809112010F
:10531000909113010E9496A720E030E040E251E412
:105320000E9496A70EC060911001709111018091AA
:105330001201909113010E9496A79701A8010E9463
:1053400097A74B015C0120E030E040E251E4B70157
:10535000C8010E9470A818162CF47E2D6F2D902F76
:10536000812F04C070E060E090E281E4272F362FA7
:10537000492F582FC501B4010E9496A720E030E0C4
:1053800040E05FE30E9445AB0E94DFA8C051DF4FC1
:1053900079836883C05FD04020E030E040E251E490
:1053A000B701C8010E9470A818165CF4B701C801C3
:1053B0000E94DFA8C352DF4F79836883CD5DD04060
:1053C00008C02AE030E0C352DF4F39832883CD5D27
:1053D000D040CE51DF4F19821882C25ED04031E0FA
:1053E000C152DF4F3883CF5DD040CC51DF4F19829F
:1053F0001882C45ED040C851DF4F88819981C85E51
:10540000D040919581959109CA50DF4F9983888347
:10541000C65FD040C352DF4FA881B981CD5DD04077
:10542000BD01BB0F880B990B0E9412A9C651DF4F1B
:10543000688379838A839B83CA5ED040C0900401CD
:10544000D0900501E0900601F090070120E030E0E7
:1054500040E251ECC701B6010E9473AA20915103AA
:1054600030915203409153035091540387FD11C072
:1054700060911001709111018091120190911301BE
:105480000E9496A720E030E040E251E40E9496A7F7
:105490000EC06091100170911101809112019091E4
:1054A00013010E9496A7A70196010E9497A79B014E
:1054B000AC01C651DF4F688179818A819B81CA5EC8
:1054C000D0400E9470A818160CF40DC2C0900001C4
:1054D000D0900101E0900201F0900301C152DF4F32
:1054E0009881CF5DD0409923E9F020E030E040E2A0
:1054F00051E4C701B6010E9470A818160CF059C0FB
:10550000C701B6010E94DFA81B01C851DF4FA88167
:10551000B981C85ED040CA51DF4FB983A883C65E47
:10552000D04056C020E030E040E251ECC701B60167
:105530000E9473AA20914D0330914E0340914F0376
:105540005091500387FD11C060910C0170910D01C5
:1055500080910E0190910F010E9496A720E030E00B
:1055600040E251E40E9496A70EC060910C01709138
:105570000D0180910E0190910F010E9496A7A70145
:1055800096010E9497A70E94DFA81B01CA50DF4F17
:10559000E881F981C65FD040CA51DF4FF983E883C3
:1055A000C65ED040F1E0C152DF4FF883CF5DD040FE
:1055B00014C0C851DF4F28813981C85ED040CA511C
:1055C000DF4F39832883C65ED040BAE02B2E312CC2
:1055D000C152DF4F1882CF5DD04081E090E08C0F48
:1055E0009D1FCE51DF4FA881B981C25ED0408A0F86
:1055F0009B1FC052DF4F99838883C05ED040CC513F
:10560000DF4FE881F981C45ED040C251DF4FF9839A
:10561000E883CE5ED040C12CD12C80906305909061
:105620006405A0906505B0906605409067055090B0
:1056300068056090690570906A05C251DF4F288146
:105640003981CE5ED040232B29F4E12CF12C00E8E7
:1056500010E410C020E030E040EA50E460916B05B7
:1056600070916C0580916D0590916E050E9497A7D1
:105670007B018C01A3019201C501B4010E940915AF
:10568000B101032C000C880B990B0E9412A94B014D
:105690005C0180916B0590916C05A0916D05B091B6
:1056A0006E05CE50DF4F88839983AA83BB83C25F88
:1056B000D0402091040130910501409106015091A4
:1056C0000701C651DF4F688179818A819B81CA5E5B
:1056D000D0400E9496A72B013C01209100013091FF
:1056E00001014091020150910301C501B4010E94E2
:1056F00096A7CE50DF4FE880F9800A811B81C25FF8
:10570000D040A30192010E9409150E94AA17CE5110
:10571000DF4FE881F981C25ED040EC0DFD1DADE6A2
:10572000B0E0AC0FBD1FEA0FFB1F80916B0590919D
:105730006C05A0916D05B0916E0580839183A28365
:10574000B383EFE4F6E064918F01662349F08CE5C2
:1057500091E10E94A90C0F5F1F4FF8016491F5CFF2
:10576000B1018CE591E10E94A118EAE4F6E06491B0
:105770008F01662349F08CE591E10E94A90C0F5F2F
:105780001F4FF8016491F5CFC352DF4F68817981D3
:10579000CD5DD0408CE591E10E94A118E5E4F6E0F2
:1057A00064918F01662349F08CE591E10E94A90C78
:1057B0000F5F1F4FF8016491F5CF40916B05509139
:1057C0006C0560916D0570916E0522E030E08CE50E
:1057D00091E10E94A718E3E4F6E064918F0166234B
:1057E00049F08CE591E10E94A90C0F5F1F4FF80171
:1057F0006491F5CFC052DF4FA881B981C05ED0401F
:105800008D929D92AD92BD92C052DF4FB983A88315
:10581000C05ED040C651DF4F88819981AA81BB818B
:10582000CA5ED040C052DF4FE881F981C05ED040EF
:1058300080A391A3A2A3B3A3EC5BFF4F80E090E011
:10584000A0E8BFE380839183A283B383C251DF4F7B
:10585000A881B981CE5ED0401196C251DF4FB98385
:10586000A883CE5ED040CA51DF4FE881F981C65E81
:10587000D0402E0E3F1EF4E0CF0ED11C2CE0C216FD
:10588000D10409F0CACECC51DF4F88819981C45E22
:10589000D0400396CC51DF4F99838883C45ED040BB
:1058A000C352DF4FA881B981CD5DD040C051DF4FD9
:1058B000E881F981C05FD040AE0FBF1FC352DF4FF8
:1058C000B983A883CD5DD040CE51DF4F2881398187
:1058D000C25ED040245F3F4FCE51DF4F39832883D3
:1058E000C25ED04097CD0E94DA149E0123593F4FEB
:1058F000AE014F5F5F4F63E070E089E090E00E948F
:10590000A5803C01EDE2F6E064918F01662349F049
:105910008CE591E10E94A90C0F5F1F4FF801649183
:10592000F5CFD3014D915D916D917C9122E030E0F6
:105930008CE591E10E94A718E8E2F6E064918F01FE
:10594000662349F08CE591E10E94A90C0F5F1F4F7F
:10595000F8016491F5CFD30114964D915D916D914D
:105960007C91179722E030E08CE591E10E94A71826
:10597000E3E2F6E064918F01662349F08CE591E162
:105980000E94A90C0F5F1F4FF8016491F5CFD3015E
:1059900018964D915D916D917C911B9722E030E0BE
:1059A0008CE591E10E94A7186AE08CE591E10E94E4
:1059B000A90CF3010481158126813781305840817B
:1059C00051816281738170585E01FDE9AF0EB11C97
:1059D000C12CD12C80E8E82E8FE3F82EC5010E945F
:1059E000059861E472E0C5010E948299D501CC90CE
:1059F0001196DC9011971296EC9012971396FC90EA
:105A0000139714960C91149715961C91159716964A
:105A10002C91169717963C91179718964C911897BA
:105A200019965C9119971A966C911A971B967C910E
:105A3000CE0187549F4F0E947D9A84E2FE01E75475
:105A4000FF4FA2E5B1E001900D928A95E1F74E017A
:105A5000B1E98B0E911CC4010E942F6EF40160818C
:105A60007181828193816093630570936405809353
:105A70006505909366052481358146815781209381
:105A80006705309368054093690550936A05C09097
:105A90000801D0900901E0900A01F0900B01870104
:105AA000760117FB109517F91095E0926B05F092AF
:105AB0006C0500936D0510936E05EFE6CE2EE5E0C4
:105AC000DE2E0E94A66EC3010E944E9F0E94C988CE
:105AD00082E00E9417890E9412A92091460F3091FE
